{
  "_format": "hh-sol-artifact-1",
  "contractName": "MyTokenV1",
  "sourceName": "contracts/MyTokenV1.sol",
  "abi": [
    {
      "inputs": [],
      "stateMutability": "nonpayable",
      "type": "constructor"
    },
    {
      "anonymous": false,
      "inputs": [
        {
          "indexed": false,
          "internalType": "address",
          "name": "previousAdmin",
          "type": "address"
        },
        {
          "indexed": false,
          "internalType": "address",
          "name": "newAdmin",
          "type": "address"
        }
      ],
      "name": "AdminChanged",
      "type": "event"
    },
    {
      "anonymous": false,
      "inputs": [
        {
          "indexed": true,
          "internalType": "address",
          "name": "owner",
          "type": "address"
        },
        {
          "indexed": true,
          "internalType": "address",
          "name": "spender",
          "type": "address"
        },
        {
          "indexed": false,
          "internalType": "uint256",
          "name": "value",
          "type": "uint256"
        }
      ],
      "name": "Approval",
      "type": "event"
    },
    {
      "anonymous": false,
      "inputs": [
        {
          "indexed": true,
          "internalType": "address",
          "name": "beacon",
          "type": "address"
        }
      ],
      "name": "BeaconUpgraded",
      "type": "event"
    },
    {
      "anonymous": false,
      "inputs": [
        {
          "indexed": false,
          "internalType": "uint8",
          "name": "version",
          "type": "uint8"
        }
      ],
      "name": "Initialized",
      "type": "event"
    },
    {
      "anonymous": false,
      "inputs": [
        {
          "indexed": true,
          "internalType": "address",
          "name": "previousOwner",
          "type": "address"
        },
        {
          "indexed": true,
          "internalType": "address",
          "name": "newOwner",
          "type": "address"
        }
      ],
      "name": "OwnershipTransferred",
      "type": "event"
    },
    {
      "anonymous": false,
      "inputs": [
        {
          "indexed": true,
          "internalType": "address",
          "name": "from",
          "type": "address"
        },
        {
          "indexed": true,
          "internalType": "address",
          "name": "to",
          "type": "address"
        },
        {
          "indexed": false,
          "internalType": "uint256",
          "name": "value",
          "type": "uint256"
        }
      ],
      "name": "Transfer",
      "type": "event"
    },
    {
      "anonymous": false,
      "inputs": [
        {
          "indexed": true,
          "internalType": "address",
          "name": "implementation",
          "type": "address"
        }
      ],
      "name": "Upgraded",
      "type": "event"
    },
    {
      "inputs": [
        {
          "internalType": "address",
          "name": "owner",
          "type": "address"
        },
        {
          "internalType": "address",
          "name": "spender",
          "type": "address"
        }
      ],
      "name": "allowance",
      "outputs": [
        {
          "internalType": "uint256",
          "name": "",
          "type": "uint256"
        }
      ],
      "stateMutability": "view",
      "type": "function"
    },
    {
      "inputs": [
        {
          "internalType": "address",
          "name": "spender",
          "type": "address"
        },
        {
          "internalType": "uint256",
          "name": "amount",
          "type": "uint256"
        }
      ],
      "name": "approve",
      "outputs": [
        {
          "internalType": "bool",
          "name": "",
          "type": "bool"
        }
      ],
      "stateMutability": "nonpayable",
      "type": "function"
    },
    {
      "inputs": [
        {
          "internalType": "address",
          "name": "account",
          "type": "address"
        }
      ],
      "name": "balanceOf",
      "outputs": [
        {
          "internalType": "uint256",
          "name": "",
          "type": "uint256"
        }
      ],
      "stateMutability": "view",
      "type": "function"
    },
    {
      "inputs": [],
      "name": "decimals",
      "outputs": [
        {
          "internalType": "uint8",
          "name": "",
          "type": "uint8"
        }
      ],
      "stateMutability": "view",
      "type": "function"
    },
    {
      "inputs": [
        {
          "internalType": "address",
          "name": "spender",
          "type": "address"
        },
        {
          "internalType": "uint256",
          "name": "subtractedValue",
          "type": "uint256"
        }
      ],
      "name": "decreaseAllowance",
      "outputs": [
        {
          "internalType": "bool",
          "name": "",
          "type": "bool"
        }
      ],
      "stateMutability": "nonpayable",
      "type": "function"
    },
    {
      "inputs": [
        {
          "internalType": "address",
          "name": "spender",
          "type": "address"
        },
        {
          "internalType": "uint256",
          "name": "addedValue",
          "type": "uint256"
        }
      ],
      "name": "increaseAllowance",
      "outputs": [
        {
          "internalType": "bool",
          "name": "",
          "type": "bool"
        }
      ],
      "stateMutability": "nonpayable",
      "type": "function"
    },
    {
      "inputs": [],
      "name": "initialize",
      "outputs": [],
      "stateMutability": "nonpayable",
      "type": "function"
    },
    {
      "inputs": [],
      "name": "name",
      "outputs": [
        {
          "internalType": "string",
          "name": "",
          "type": "string"
        }
      ],
      "stateMutability": "view",
      "type": "function"
    },
    {
      "inputs": [],
      "name": "owner",
      "outputs": [
        {
          "internalType": "address",
          "name": "",
          "type": "address"
        }
      ],
      "stateMutability": "view",
      "type": "function"
    },
    {
      "inputs": [],
      "name": "proxiableUUID",
      "outputs": [
        {
          "internalType": "bytes32",
          "name": "",
          "type": "bytes32"
        }
      ],
      "stateMutability": "view",
      "type": "function"
    },
    {
      "inputs": [],
      "name": "renounceOwnership",
      "outputs": [],
      "stateMutability": "nonpayable",
      "type": "function"
    },
    {
      "inputs": [],
      "name": "symbol",
      "outputs": [
        {
          "internalType": "string",
          "name": "",
          "type": "string"
        }
      ],
      "stateMutability": "view",
      "type": "function"
    },
    {
      "inputs": [],
      "name": "totalSupply",
      "outputs": [
        {
          "internalType": "uint256",
          "name": "",
          "type": "uint256"
        }
      ],
      "stateMutability": "view",
      "type": "function"
    },
    {
      "inputs": [
        {
          "internalType": "address",
          "name": "to",
          "type": "address"
        },
        {
          "internalType": "uint256",
          "name": "amount",
          "type": "uint256"
        }
      ],
      "name": "transfer",
      "outputs": [
        {
          "internalType": "bool",
          "name": "",
          "type": "bool"
        }
      ],
      "stateMutability": "nonpayable",
      "type": "function"
    },
    {
      "inputs": [
        {
          "internalType": "address",
          "name": "from",
          "type": "address"
        },
        {
          "internalType": "address",
          "name": "to",
          "type": "address"
        },
        {
          "internalType": "uint256",
          "name": "amount",
          "type": "uint256"
        }
      ],
      "name": "transferFrom",
      "outputs": [
        {
          "internalType": "bool",
          "name": "",
          "type": "bool"
        }
      ],
      "stateMutability": "nonpayable",
      "type": "function"
    },
    {
      "inputs": [
        {
          "internalType": "address",
          "name": "newOwner",
          "type": "address"
        }
      ],
      "name": "transferOwnership",
      "outputs": [],
      "stateMutability": "nonpayable",
      "type": "function"
    },
    {
      "inputs": [
        {
          "internalType": "address",
          "name": "newImplementation",
          "type": "address"
        }
      ],
      "name": "upgradeTo",
      "outputs": [],
      "stateMutability": "nonpayable",
      "type": "function"
    },
    {
      "inputs": [
        {
          "internalType": "address",
          "name": "newImplementation",
          "type": "address"
        },
        {
          "internalType": "bytes",
          "name": "data",
          "type": "bytes"
        }
      ],
      "name": "upgradeToAndCall",
      "outputs": [],
      "stateMutability": "payable",
      "type": "function"
    }
  ],
  "bytecode": "0x60a06040523073ffffffffffffffffffffffffffffffffffffffff1660809073ffffffffffffffffffffffffffffffffffffffff1660601b8152503480156200004757600080fd5b5060008060019054906101000a900460ff161590508080156200007a5750600160008054906101000a900460ff1660ff16105b80620000b6575062000097306200019960201b62000dcc1760201c565b158015620000b55750600160008054906101000a900460ff1660ff16145b5b620000f8576040517f08c379a0000000000000000000000000000000000000000000000000000000008152600401620000ef9062000211565b60405180910390fd5b60016000806101000a81548160ff021916908360ff160217905550801562000136576001600060016101000a81548160ff0219169083151502179055505b8015620001925760008060016101000a81548160ff0219169083151502179055507f7f26b83ff96e1f2b6a682f133852f6798a09c465da95921460cefb38474024986001604051620001899190620001f4565b60405180910390a15b50620002b4565b6000808273ffffffffffffffffffffffffffffffffffffffff163b119050919050565b620001c78162000251565b82525050565b6000620001dc602e8362000233565b9150620001e98262000265565b604082019050919050565b60006020820190506200020b6000830184620001bc565b92915050565b600060208201905081810360008301526200022c81620001cd565b9050919050565b600082825260208201905092915050565b600060ff82169050919050565b60006200025e8262000244565b9050919050565b7f496e697469616c697a61626c653a20636f6e747261637420697320616c72656160008201527f647920696e697469616c697a6564000000000000000000000000000000000000602082015250565b60805160601c612fa2620002ef60003960008181610550015281816105df01528181610736015281816107c501526108750152612fa26000f3fe6080604052600436106101095760003560e01c806370a082311161009557806395d89b411161006457806395d89b411461034c578063a457c2d714610377578063a9059cbb146103b4578063dd62ed3e146103f1578063f2fde38b1461042e57610109565b806370a08231146102b6578063715018a6146102f35780638129fc1c1461030a5780638da5cb5b1461032157610109565b8063313ce567116100dc578063313ce567146101de5780633659cfe61461020957806339509351146102325780634f1ef2861461026f57806352d1902d1461028b57610109565b806306fdde031461010e578063095ea7b31461013957806318160ddd1461017657806323b872dd146101a1575b600080fd5b34801561011a57600080fd5b50610123610457565b6040516101309190612273565b60405180910390f35b34801561014557600080fd5b50610160600480360381019061015b9190611e2e565b6104e9565b60405161016d9190612222565b60405180910390f35b34801561018257600080fd5b5061018b61050c565b60405161019891906124f5565b60405180910390f35b3480156101ad57600080fd5b506101c860048036038101906101c39190611d8b565b610516565b6040516101d59190612222565b60405180910390f35b3480156101ea57600080fd5b506101f3610545565b6040516102009190612510565b60405180910390f35b34801561021557600080fd5b50610230600480360381019061022b9190611d26565b61054e565b005b34801561023e57600080fd5b5061025960048036038101906102549190611e2e565b6106fd565b6040516102669190612222565b60405180910390f35b61028960048036038101906102849190611dda565b610734565b005b34801561029757600080fd5b506102a0610871565b6040516102ad919061223d565b60405180910390f35b3480156102c257600080fd5b506102dd60048036038101906102d89190611d26565b61092a565b6040516102ea91906124f5565b60405180910390f35b3480156102ff57600080fd5b50610308610973565b005b34801561031657600080fd5b5061031f610987565b005b34801561032d57600080fd5b50610336610b6b565b6040516103439190612207565b60405180910390f35b34801561035857600080fd5b50610361610b95565b60405161036e9190612273565b60405180910390f35b34801561038357600080fd5b5061039e60048036038101906103999190611e2e565b610c27565b6040516103ab9190612222565b60405180910390f35b3480156103c057600080fd5b506103db60048036038101906103d69190611e2e565b610c9e565b6040516103e89190612222565b60405180910390f35b3480156103fd57600080fd5b5061041860048036038101906104139190611d4f565b610cc1565b60405161042591906124f5565b60405180910390f35b34801561043a57600080fd5b5061045560048036038101906104509190611d26565b610d48565b005b60606036805461046690612887565b80601f016020809104026020016040519081016040528092919081815260200182805461049290612887565b80156104df5780601f106104b4576101008083540402835291602001916104df565b820191906000526020600020905b8154815290600101906020018083116104c257829003601f168201915b5050505050905090565b6000806104f4610def565b9050610501818585610df7565b600191505092915050565b6000603554905090565b600080610521610def565b905061052e858285610fc2565b61053985858561104e565b60019150509392505050565b60006012905090565b7f000000000000000000000000000000000000000000000000000000000000000073ffffffffffffffffffffffffffffffffffffffff163073ffffffffffffffffffffffffffffffffffffffff1614156105dd576040517f08c379a00000000000000000000000000000000000000000000000000000000081526004016105d4906122f5565b60405180910390fd5b7f000000000000000000000000000000000000000000000000000000000000000073ffffffffffffffffffffffffffffffffffffffff1661061c6112d2565b73ffffffffffffffffffffffffffffffffffffffff1614610672576040517f08c379a000000000000000000000000000000000000000000000000000000000815260040161066990612355565b60405180910390fd5b61067b81611329565b6106fa81600067ffffffffffffffff8111156106c0577f4e487b7100000000000000000000000000000000000000000000000000000000600052604160045260246000fd5b6040519080825280601f01601f1916602001820160405280156106f25781602001600182028036833780820191505090505b506000611334565b50565b600080610708610def565b905061072981858561071a8589610cc1565b61072491906125b3565b610df7565b600191505092915050565b7f000000000000000000000000000000000000000000000000000000000000000073ffffffffffffffffffffffffffffffffffffffff163073ffffffffffffffffffffffffffffffffffffffff1614156107c3576040517f08c379a00000000000000000000000000000000000000000000000000000000081526004016107ba906122f5565b60405180910390fd5b7f000000000000000000000000000000000000000000000000000000000000000073ffffffffffffffffffffffffffffffffffffffff166108026112d2565b73ffffffffffffffffffffffffffffffffffffffff1614610858576040517f08c379a000000000000000000000000000000000000000000000000000000000815260040161084f90612355565b60405180910390fd5b61086182611329565b61086d82826001611334565b5050565b60007f000000000000000000000000000000000000000000000000000000000000000073ffffffffffffffffffffffffffffffffffffffff163073ffffffffffffffffffffffffffffffffffffffff1614610901576040517f08c379a00000000000000000000000000000000000000000000000000000000081526004016108f890612375565b60405180910390fd5b7f360894a13ba1a3210667c828492db98dca3e2076cc3735a920a3ca505d382bbc60001b905090565b6000603360008373ffffffffffffffffffffffffffffffffffffffff1673ffffffffffffffffffffffffffffffffffffffff168152602001908152602001600020549050919050565b61097b6114b1565b610985600061152f565b565b60008060019054906101000a900460ff161590508080156109b85750600160008054906101000a900460ff1660ff16105b806109e557506109c730610dcc565b1580156109e45750600160008054906101000a900460ff1660ff16145b5b610a24576040517f08c379a0000000000000000000000000000000000000000000000000000000008152600401610a1b906123b5565b60405180910390fd5b60016000806101000a81548160ff021916908360ff1602179055508015610a61576001600060016101000a81548160ff0219169083151502179055505b610ad56040518060400160405280600781526020017f4d79546f6b656e000000000000000000000000000000000000000000000000008152506040518060400160405280600381526020017f4d544b00000000000000000000000000000000000000000000000000000000008152506115f5565b610add611652565b610ae56116ab565b610b0f33610af1610545565b600a610afd919061265c565b6103e8610b0a919061277a565b6116fc565b8015610b685760008060016101000a81548160ff0219169083151502179055507f7f26b83ff96e1f2b6a682f133852f6798a09c465da95921460cefb38474024986001604051610b5f9190612258565b60405180910390a15b50565b600060c960009054906101000a900473ffffffffffffffffffffffffffffffffffffffff16905090565b606060378054610ba490612887565b80601f0160208091040260200160405190810160405280929190818152602001828054610bd090612887565b8015610c1d5780601f10610bf257610100808354040283529160200191610c1d565b820191906000526020600020905b815481529060010190602001808311610c0057829003601f168201915b5050505050905090565b600080610c32610def565b90506000610c408286610cc1565b905083811015610c85576040517f08c379a0000000000000000000000000000000000000000000000000000000008152600401610c7c906124b5565b60405180910390fd5b610c928286868403610df7565b60019250505092915050565b600080610ca9610def565b9050610cb681858561104e565b600191505092915050565b6000603460008473ffffffffffffffffffffffffffffffffffffffff1673ffffffffffffffffffffffffffffffffffffffff16815260200190815260200160002060008373ffffffffffffffffffffffffffffffffffffffff1673ffffffffffffffffffffffffffffffffffffffff16815260200190815260200160002054905092915050565b610d506114b1565b600073ffffffffffffffffffffffffffffffffffffffff168173ffffffffffffffffffffffffffffffffffffffff161415610dc0576040517f08c379a0000000000000000000000000000000000000000000000000000000008152600401610db7906122b5565b60405180910390fd5b610dc98161152f565b50565b6000808273ffffffffffffffffffffffffffffffffffffffff163b119050919050565b600033905090565b600073ffffffffffffffffffffffffffffffffffffffff168373ffffffffffffffffffffffffffffffffffffffff161415610e67576040517f08c379a0000000000000000000000000000000000000000000000000000000008152600401610e5e90612475565b60405180910390fd5b600073ffffffffffffffffffffffffffffffffffffffff168273ffffffffffffffffffffffffffffffffffffffff161415610ed7576040517f08c379a0000000000000000000000000000000000000000000000000000000008152600401610ece906122d5565b60405180910390fd5b80603460008573ffffffffffffffffffffffffffffffffffffffff1673ffffffffffffffffffffffffffffffffffffffff16815260200190815260200160002060008473ffffffffffffffffffffffffffffffffffffffff1673ffffffffffffffffffffffffffffffffffffffff168152602001908152602001600020819055508173ffffffffffffffffffffffffffffffffffffffff168373ffffffffffffffffffffffffffffffffffffffff167f8c5be1e5ebec7d5bd14f71427d1e84f3dd0314c0f7b2291e5b200ac8c7c3b92583604051610fb591906124f5565b60405180910390a3505050565b6000610fce8484610cc1565b90507fffffffffffffffffffffffffffffffffffffffffffffffffffffffffffffffff8114611048578181101561103a576040517f08c379a000000000000000000000000000000000000000000000000000000000815260040161103190612315565b60405180910390fd5b6110478484848403610df7565b5b50505050565b600073ffffffffffffffffffffffffffffffffffffffff168373ffffffffffffffffffffffffffffffffffffffff1614156110be576040517f08c379a00000000000000000000000000000000000000000000000000000000081526004016110b590612455565b60405180910390fd5b600073ffffffffffffffffffffffffffffffffffffffff168273ffffffffffffffffffffffffffffffffffffffff16141561112e576040517f08c379a000000000000000000000000000000000000000000000000000000000815260040161112590612295565b60405180910390fd5b61113983838361185d565b6000603360008573ffffffffffffffffffffffffffffffffffffffff1673ffffffffffffffffffffffffffffffffffffffff168152602001908152602001600020549050818110156111c0576040517f08c379a00000000000000000000000000000000000000000000000000000000081526004016111b790612335565b60405180910390fd5b818103603360008673ffffffffffffffffffffffffffffffffffffffff1673ffffffffffffffffffffffffffffffffffffffff1681526020019081526020016000208190555081603360008573ffffffffffffffffffffffffffffffffffffffff1673ffffffffffffffffffffffffffffffffffffffff168152602001908152602001600020600082825461125591906125b3565b925050819055508273ffffffffffffffffffffffffffffffffffffffff168473ffffffffffffffffffffffffffffffffffffffff167fddf252ad1be2c89b69c2b068fc378daa952ba7f163c4a11628f55a4df523b3ef846040516112b991906124f5565b60405180910390a36112cc848484611862565b50505050565b60006113007f360894a13ba1a3210667c828492db98dca3e2076cc3735a920a3ca505d382bbc60001b611867565b60000160009054906101000a900473ffffffffffffffffffffffffffffffffffffffff16905090565b6113316114b1565b50565b6113607f4910fdfa16fed3260ed0e7147f7cc6da11a60208b5b9406d12a635614ffd914360001b611871565b60000160009054906101000a900460ff16156113845761137f8361187b565b6114ac565b8273ffffffffffffffffffffffffffffffffffffffff166352d1902d6040518163ffffffff1660e01b815260040160206040518083038186803b1580156113ca57600080fd5b505afa9250505080156113fb57506040513d601f19601f820116820180604052508101906113f89190611e6a565b60015b61143a576040517f08c379a0000000000000000000000000000000000000000000000000000000008152600401611431906123d5565b60405180910390fd5b7f360894a13ba1a3210667c828492db98dca3e2076cc3735a920a3ca505d382bbc60001b811461149f576040517f08c379a000000000000000000000000000000000000000000000000000000000815260040161149690612395565b60405180910390fd5b506114ab838383611934565b5b505050565b6114b9610def565b73ffffffffffffffffffffffffffffffffffffffff166114d7610b6b565b73ffffffffffffffffffffffffffffffffffffffff161461152d576040517f08c379a000000000000000000000000000000000000000000000000000000000815260040161152490612415565b60405180910390fd5b565b600060c960009054906101000a900473ffffffffffffffffffffffffffffffffffffffff1690508160c960006101000a81548173ffffffffffffffffffffffffffffffffffffffff021916908373ffffffffffffffffffffffffffffffffffffffff1602179055508173ffffffffffffffffffffffffffffffffffffffff168173ffffffffffffffffffffffffffffffffffffffff167f8be0079c531659141344cd1fd0a4f28419497f9722a3daafe3b4186f6b6457e060405160405180910390a35050565b600060019054906101000a900460ff16611644576040517f08c379a000000000000000000000000000000000000000000000000000000000815260040161163b90612495565b60405180910390fd5b61164e8282611960565b5050565b600060019054906101000a900460ff166116a1576040517f08c379a000000000000000000000000000000000000000000000000000000000815260040161169890612495565b60405180910390fd5b6116a96119e1565b565b600060019054906101000a900460ff166116fa576040517f08c379a00000000000000000000000000000000000000000000000000000000081526004016116f190612495565b60405180910390fd5b565b600073ffffffffffffffffffffffffffffffffffffffff168273ffffffffffffffffffffffffffffffffffffffff16141561176c576040517f08c379a0000000000000000000000000000000000000000000000000000000008152600401611763906124d5565b60405180910390fd5b6117786000838361185d565b806035600082825461178a91906125b3565b9250508190555080603360008473ffffffffffffffffffffffffffffffffffffffff1673ffffffffffffffffffffffffffffffffffffffff16815260200190815260200160002060008282546117e091906125b3565b925050819055508173ffffffffffffffffffffffffffffffffffffffff16600073ffffffffffffffffffffffffffffffffffffffff167fddf252ad1be2c89b69c2b068fc378daa952ba7f163c4a11628f55a4df523b3ef8360405161184591906124f5565b60405180910390a361185960008383611862565b5050565b505050565b505050565b6000819050919050565b6000819050919050565b61188481610dcc565b6118c3576040517f08c379a00000000000000000000000000000000000000000000000000000000081526004016118ba906123f5565b60405180910390fd5b806118f07f360894a13ba1a3210667c828492db98dca3e2076cc3735a920a3ca505d382bbc60001b611867565b60000160006101000a81548173ffffffffffffffffffffffffffffffffffffffff021916908373ffffffffffffffffffffffffffffffffffffffff16021790555050565b61193d83611a42565b60008251118061194a5750805b1561195b576119598383611a91565b505b505050565b600060019054906101000a900460ff166119af576040517f08c379a00000000000000000000000000000000000000000000000000000000081526004016119a690612495565b60405180910390fd5b81603690805190602001906119c5929190611bdc565b5080603790805190602001906119dc929190611bdc565b505050565b600060019054906101000a900460ff16611a30576040517f08c379a0000000000000000000000000000000000000000000000000000000008152600401611a2790612495565b60405180910390fd5b611a40611a3b610def565b61152f565b565b611a4b8161187b565b8073ffffffffffffffffffffffffffffffffffffffff167fbc7cd75a20ee27fd9adebab32041f755214dbc6bffa90cc0225b39da2e5c2d3b60405160405180910390a250565b6060611a9c83610dcc565b611adb576040517f08c379a0000000000000000000000000000000000000000000000000000000008152600401611ad290612435565b60405180910390fd5b6000808473ffffffffffffffffffffffffffffffffffffffff1684604051611b0391906121f0565b600060405180830381855af49150503d8060008114611b3e576040519150601f19603f3d011682016040523d82523d6000602084013e611b43565b606091505b5091509150611b6b8282604051806060016040528060278152602001612f4660279139611b75565b9250505092915050565b60608315611b8557829050611bd5565b600083511115611b985782518084602001fd5b816040517f08c379a0000000000000000000000000000000000000000000000000000000008152600401611bcc9190612273565b60405180910390fd5b9392505050565b828054611be890612887565b90600052602060002090601f016020900481019282611c0a5760008555611c51565b82601f10611c2357805160ff1916838001178555611c51565b82800160010185558215611c51579182015b82811115611c50578251825591602001919060010190611c35565b5b509050611c5e9190611c62565b5090565b5b80821115611c7b576000816000905550600101611c63565b5090565b6000611c92611c8d84612550565b61252b565b905082815260208101848484011115611caa57600080fd5b611cb5848285612845565b509392505050565b600081359050611ccc81612f00565b92915050565b600081519050611ce181612f17565b92915050565b600082601f830112611cf857600080fd5b8135611d08848260208601611c7f565b91505092915050565b600081359050611d2081612f2e565b92915050565b600060208284031215611d3857600080fd5b6000611d4684828501611cbd565b91505092915050565b60008060408385031215611d6257600080fd5b6000611d7085828601611cbd565b9250506020611d8185828601611cbd565b9150509250929050565b600080600060608486031215611da057600080fd5b6000611dae86828701611cbd565b9350506020611dbf86828701611cbd565b9250506040611dd086828701611d11565b9150509250925092565b60008060408385031215611ded57600080fd5b6000611dfb85828601611cbd565b925050602083013567ffffffffffffffff811115611e1857600080fd5b611e2485828601611ce7565b9150509250929050565b60008060408385031215611e4157600080fd5b6000611e4f85828601611cbd565b9250506020611e6085828601611d11565b9150509250929050565b600060208284031215611e7c57600080fd5b6000611e8a84828501611cd2565b91505092915050565b611e9c816127d4565b82525050565b611eab816127e6565b82525050565b611eba816127f2565b82525050565b6000611ecb82612581565b611ed58185612597565b9350611ee5818560208601612854565b80840191505092915050565b611efa81612833565b82525050565b6000611f0b8261258c565b611f1581856125a2565b9350611f25818560208601612854565b611f2e81612977565b840191505092915050565b6000611f466023836125a2565b9150611f5182612995565b604082019050919050565b6000611f696026836125a2565b9150611f74826129e4565b604082019050919050565b6000611f8c6022836125a2565b9150611f9782612a33565b604082019050919050565b6000611faf602c836125a2565b9150611fba82612a82565b604082019050919050565b6000611fd2601d836125a2565b9150611fdd82612ad1565b602082019050919050565b6000611ff56026836125a2565b915061200082612afa565b604082019050919050565b6000612018602c836125a2565b915061202382612b49565b604082019050919050565b600061203b6038836125a2565b915061204682612b98565b604082019050919050565b600061205e6029836125a2565b915061206982612be7565b604082019050919050565b6000612081602e836125a2565b915061208c82612c36565b604082019050919050565b60006120a4602e836125a2565b91506120af82612c85565b604082019050919050565b60006120c7602d836125a2565b91506120d282612cd4565b604082019050919050565b60006120ea6020836125a2565b91506120f582612d23565b602082019050919050565b600061210d6026836125a2565b915061211882612d4c565b604082019050919050565b60006121306025836125a2565b915061213b82612d9b565b604082019050919050565b60006121536024836125a2565b915061215e82612dea565b604082019050919050565b6000612176602b836125a2565b915061218182612e39565b604082019050919050565b60006121996025836125a2565b91506121a482612e88565b604082019050919050565b60006121bc601f836125a2565b91506121c782612ed7565b602082019050919050565b6121db8161281c565b82525050565b6121ea81612826565b82525050565b60006121fc8284611ec0565b915081905092915050565b600060208201905061221c6000830184611e93565b92915050565b60006020820190506122376000830184611ea2565b92915050565b60006020820190506122526000830184611eb1565b92915050565b600060208201905061226d6000830184611ef1565b92915050565b6000602082019050818103600083015261228d8184611f00565b905092915050565b600060208201905081810360008301526122ae81611f39565b9050919050565b600060208201905081810360008301526122ce81611f5c565b9050919050565b600060208201905081810360008301526122ee81611f7f565b9050919050565b6000602082019050818103600083015261230e81611fa2565b9050919050565b6000602082019050818103600083015261232e81611fc5565b9050919050565b6000602082019050818103600083015261234e81611fe8565b9050919050565b6000602082019050818103600083015261236e8161200b565b9050919050565b6000602082019050818103600083015261238e8161202e565b9050919050565b600060208201905081810360008301526123ae81612051565b9050919050565b600060208201905081810360008301526123ce81612074565b9050919050565b600060208201905081810360008301526123ee81612097565b9050919050565b6000602082019050818103600083015261240e816120ba565b9050919050565b6000602082019050818103600083015261242e816120dd565b9050919050565b6000602082019050818103600083015261244e81612100565b9050919050565b6000602082019050818103600083015261246e81612123565b9050919050565b6000602082019050818103600083015261248e81612146565b9050919050565b600060208201905081810360008301526124ae81612169565b9050919050565b600060208201905081810360008301526124ce8161218c565b9050919050565b600060208201905081810360008301526124ee816121af565b9050919050565b600060208201905061250a60008301846121d2565b92915050565b600060208201905061252560008301846121e1565b92915050565b6000612535612546565b905061254182826128b9565b919050565b6000604051905090565b600067ffffffffffffffff82111561256b5761256a612948565b5b61257482612977565b9050602081019050919050565b600081519050919050565b600081519050919050565b600081905092915050565b600082825260208201905092915050565b60006125be8261281c565b91506125c98361281c565b9250827fffffffffffffffffffffffffffffffffffffffffffffffffffffffffffffffff038211156125fe576125fd6128ea565b5b828201905092915050565b6000808291508390505b60018511156126535780860481111561262f5761262e6128ea565b5b600185161561263e5780820291505b808102905061264c85612988565b9450612613565b94509492505050565b60006126678261281c565b915061267283612826565b925061269f7fffffffffffffffffffffffffffffffffffffffffffffffffffffffffffffffff84846126a7565b905092915050565b6000826126b75760019050612773565b816126c55760009050612773565b81600181146126db57600281146126e557612714565b6001915050612773565b60ff8411156126f7576126f66128ea565b5b8360020a91508482111561270e5761270d6128ea565b5b50612773565b5060208310610133831016604e8410600b84101617156127495782820a905083811115612744576127436128ea565b5b612773565b6127568484846001612609565b9250905081840481111561276d5761276c6128ea565b5b81810290505b9392505050565b60006127858261281c565b91506127908361281c565b9250817fffffffffffffffffffffffffffffffffffffffffffffffffffffffffffffffff04831182151516156127c9576127c86128ea565b5b828202905092915050565b60006127df826127fc565b9050919050565b60008115159050919050565b6000819050919050565b600073ffffffffffffffffffffffffffffffffffffffff82169050919050565b6000819050919050565b600060ff82169050919050565b600061283e82612826565b9050919050565b82818337600083830152505050565b60005b83811015612872578082015181840152602081019050612857565b83811115612881576000848401525b50505050565b6000600282049050600182168061289f57607f821691505b602082108114156128b3576128b2612919565b5b50919050565b6128c282612977565b810181811067ffffffffffffffff821117156128e1576128e0612948565b5b80604052505050565b7f4e487b7100000000000000000000000000000000000000000000000000000000600052601160045260246000fd5b7f4e487b7100000000000000000000000000000000000000000000000000000000600052602260045260246000fd5b7f4e487b7100000000000000000000000000000000000000000000000000000000600052604160045260246000fd5b6000601f19601f8301169050919050565b60008160011c9050919050565b7f45524332303a207472616e7366657220746f20746865207a65726f206164647260008201527f6573730000000000000000000000000000000000000000000000000000000000602082015250565b7f4f776e61626c653a206e6577206f776e657220697320746865207a65726f206160008201527f6464726573730000000000000000000000000000000000000000000000000000602082015250565b7f45524332303a20617070726f766520746f20746865207a65726f20616464726560008201527f7373000000000000000000000000000000000000000000000000000000000000602082015250565b7f46756e6374696f6e206d7573742062652063616c6c6564207468726f7567682060008201527f64656c656761746563616c6c0000000000000000000000000000000000000000602082015250565b7f45524332303a20696e73756666696369656e7420616c6c6f77616e6365000000600082015250565b7f45524332303a207472616e7366657220616d6f756e742065786365656473206260008201527f616c616e63650000000000000000000000000000000000000000000000000000602082015250565b7f46756e6374696f6e206d7573742062652063616c6c6564207468726f7567682060008201527f6163746976652070726f78790000000000000000000000000000000000000000602082015250565b7f555550535570677261646561626c653a206d757374206e6f742062652063616c60008201527f6c6564207468726f7567682064656c656761746563616c6c0000000000000000602082015250565b7f45524331393637557067726164653a20756e737570706f727465642070726f7860008201527f6961626c65555549440000000000000000000000000000000000000000000000602082015250565b7f496e697469616c697a61626c653a20636f6e747261637420697320616c72656160008201527f647920696e697469616c697a6564000000000000000000000000000000000000602082015250565b7f45524331393637557067726164653a206e657720696d706c656d656e7461746960008201527f6f6e206973206e6f742055555053000000000000000000000000000000000000602082015250565b7f455243313936373a206e657720696d706c656d656e746174696f6e206973206e60008201527f6f74206120636f6e747261637400000000000000000000000000000000000000602082015250565b7f4f776e61626c653a2063616c6c6572206973206e6f7420746865206f776e6572600082015250565b7f416464726573733a2064656c65676174652063616c6c20746f206e6f6e2d636f60008201527f6e74726163740000000000000000000000000000000000000000000000000000602082015250565b7f45524332303a207472616e736665722066726f6d20746865207a65726f20616460008201527f6472657373000000000000000000000000000000000000000000000000000000602082015250565b7f45524332303a20617070726f76652066726f6d20746865207a65726f2061646460008201527f7265737300000000000000000000000000000000000000000000000000000000602082015250565b7f496e697469616c697a61626c653a20636f6e7472616374206973206e6f74206960008201527f6e697469616c697a696e67000000000000000000000000000000000000000000602082015250565b7f45524332303a2064656372656173656420616c6c6f77616e63652062656c6f7760008201527f207a65726f000000000000000000000000000000000000000000000000000000602082015250565b7f45524332303a206d696e7420746f20746865207a65726f206164647265737300600082015250565b612f09816127d4565b8114612f1457600080fd5b50565b612f20816127f2565b8114612f2b57600080fd5b50565b612f378161281c565b8114612f4257600080fd5b5056fe416464726573733a206c6f772d6c6576656c2064656c65676174652063616c6c206661696c6564a26469706673582212208163d8717ca60e196601184531063baba76178f8244fad683f9d5f6b2b90555564736f6c63430008030033",
  "linkReferences": {},
  "deployedLinkReferences": {}
}