{
  "_format": "hh-sol-artifact-1",
  "contractName": "MyTokenV2",
  "sourceName": "contracts/MyTokenV2.sol",
  "abi": [
    {
      "inputs": [],
      "stateMutability": "nonpayable",
      "type": "constructor"
    },
    {
      "anonymous": false,
      "inputs": [
        {
          "indexed": false,
          "internalType": "address",
          "name": "previousAdmin",
          "type": "address"
        },
        {
          "indexed": false,
          "internalType": "address",
          "name": "newAdmin",
          "type": "address"
        }
      ],
      "name": "AdminChanged",
      "type": "event"
    },
    {
      "anonymous": false,
      "inputs": [
        {
          "indexed": true,
          "internalType": "address",
          "name": "owner",
          "type": "address"
        },
        {
          "indexed": true,
          "internalType": "address",
          "name": "spender",
          "type": "address"
        },
        {
          "indexed": false,
          "internalType": "uint256",
          "name": "value",
          "type": "uint256"
        }
      ],
      "name": "Approval",
      "type": "event"
    },
    {
      "anonymous": false,
      "inputs": [
        {
          "indexed": true,
          "internalType": "address",
          "name": "beacon",
          "type": "address"
        }
      ],
      "name": "BeaconUpgraded",
      "type": "event"
    },
    {
      "anonymous": false,
      "inputs": [
        {
          "indexed": false,
          "internalType": "uint8",
          "name": "version",
          "type": "uint8"
        }
      ],
      "name": "Initialized",
      "type": "event"
    },
    {
      "anonymous": false,
      "inputs": [
        {
          "indexed": true,
          "internalType": "address",
          "name": "previousOwner",
          "type": "address"
        },
        {
          "indexed": true,
          "internalType": "address",
          "name": "newOwner",
          "type": "address"
        }
      ],
      "name": "OwnershipTransferred",
      "type": "event"
    },
    {
      "anonymous": false,
      "inputs": [
        {
          "indexed": true,
          "internalType": "bytes32",
          "name": "role",
          "type": "bytes32"
        },
        {
          "indexed": true,
          "internalType": "bytes32",
          "name": "previousAdminRole",
          "type": "bytes32"
        },
        {
          "indexed": true,
          "internalType": "bytes32",
          "name": "newAdminRole",
          "type": "bytes32"
        }
      ],
      "name": "RoleAdminChanged",
      "type": "event"
    },
    {
      "anonymous": false,
      "inputs": [
        {
          "indexed": true,
          "internalType": "bytes32",
          "name": "role",
          "type": "bytes32"
        },
        {
          "indexed": true,
          "internalType": "address",
          "name": "account",
          "type": "address"
        },
        {
          "indexed": true,
          "internalType": "address",
          "name": "sender",
          "type": "address"
        }
      ],
      "name": "RoleGranted",
      "type": "event"
    },
    {
      "anonymous": false,
      "inputs": [
        {
          "indexed": true,
          "internalType": "bytes32",
          "name": "role",
          "type": "bytes32"
        },
        {
          "indexed": true,
          "internalType": "address",
          "name": "account",
          "type": "address"
        },
        {
          "indexed": true,
          "internalType": "address",
          "name": "sender",
          "type": "address"
        }
      ],
      "name": "RoleRevoked",
      "type": "event"
    },
    {
      "anonymous": false,
      "inputs": [
        {
          "indexed": true,
          "internalType": "address",
          "name": "from",
          "type": "address"
        },
        {
          "indexed": true,
          "internalType": "address",
          "name": "to",
          "type": "address"
        },
        {
          "indexed": false,
          "internalType": "uint256",
          "name": "value",
          "type": "uint256"
        }
      ],
      "name": "Transfer",
      "type": "event"
    },
    {
      "anonymous": false,
      "inputs": [
        {
          "indexed": true,
          "internalType": "address",
          "name": "implementation",
          "type": "address"
        }
      ],
      "name": "Upgraded",
      "type": "event"
    },
    {
      "inputs": [],
      "name": "DEFAULT_ADMIN_ROLE",
      "outputs": [
        {
          "internalType": "bytes32",
          "name": "",
          "type": "bytes32"
        }
      ],
      "stateMutability": "view",
      "type": "function"
    },
    {
      "inputs": [
        {
          "internalType": "address",
          "name": "owner",
          "type": "address"
        },
        {
          "internalType": "address",
          "name": "spender",
          "type": "address"
        }
      ],
      "name": "allowance",
      "outputs": [
        {
          "internalType": "uint256",
          "name": "",
          "type": "uint256"
        }
      ],
      "stateMutability": "view",
      "type": "function"
    },
    {
      "inputs": [
        {
          "internalType": "address",
          "name": "spender",
          "type": "address"
        },
        {
          "internalType": "uint256",
          "name": "amount",
          "type": "uint256"
        }
      ],
      "name": "approve",
      "outputs": [
        {
          "internalType": "bool",
          "name": "",
          "type": "bool"
        }
      ],
      "stateMutability": "nonpayable",
      "type": "function"
    },
    {
      "inputs": [
        {
          "internalType": "address",
          "name": "account",
          "type": "address"
        }
      ],
      "name": "balanceOf",
      "outputs": [
        {
          "internalType": "uint256",
          "name": "",
          "type": "uint256"
        }
      ],
      "stateMutability": "view",
      "type": "function"
    },
    {
      "inputs": [],
      "name": "decimals",
      "outputs": [
        {
          "internalType": "uint8",
          "name": "",
          "type": "uint8"
        }
      ],
      "stateMutability": "view",
      "type": "function"
    },
    {
      "inputs": [
        {
          "internalType": "address",
          "name": "spender",
          "type": "address"
        },
        {
          "internalType": "uint256",
          "name": "subtractedValue",
          "type": "uint256"
        }
      ],
      "name": "decreaseAllowance",
      "outputs": [
        {
          "internalType": "bool",
          "name": "",
          "type": "bool"
        }
      ],
      "stateMutability": "nonpayable",
      "type": "function"
    },
    {
      "inputs": [
        {
          "internalType": "bytes32",
          "name": "role",
          "type": "bytes32"
        }
      ],
      "name": "getRoleAdmin",
      "outputs": [
        {
          "internalType": "bytes32",
          "name": "",
          "type": "bytes32"
        }
      ],
      "stateMutability": "view",
      "type": "function"
    },
    {
      "inputs": [
        {
          "internalType": "bytes32",
          "name": "role",
          "type": "bytes32"
        },
        {
          "internalType": "address",
          "name": "account",
          "type": "address"
        }
      ],
      "name": "grantRole",
      "outputs": [],
      "stateMutability": "nonpayable",
      "type": "function"
    },
    {
      "inputs": [
        {
          "internalType": "bytes32",
          "name": "role",
          "type": "bytes32"
        },
        {
          "internalType": "address",
          "name": "account",
          "type": "address"
        }
      ],
      "name": "hasRole",
      "outputs": [
        {
          "internalType": "bool",
          "name": "",
          "type": "bool"
        }
      ],
      "stateMutability": "view",
      "type": "function"
    },
    {
      "inputs": [
        {
          "internalType": "address",
          "name": "spender",
          "type": "address"
        },
        {
          "internalType": "uint256",
          "name": "addedValue",
          "type": "uint256"
        }
      ],
      "name": "increaseAllowance",
      "outputs": [
        {
          "internalType": "bool",
          "name": "",
          "type": "bool"
        }
      ],
      "stateMutability": "nonpayable",
      "type": "function"
    },
    {
      "inputs": [],
      "name": "initialize",
      "outputs": [],
      "stateMutability": "nonpayable",
      "type": "function"
    },
    {
      "inputs": [],
      "name": "name",
      "outputs": [
        {
          "internalType": "string",
          "name": "",
          "type": "string"
        }
      ],
      "stateMutability": "view",
      "type": "function"
    },
    {
      "inputs": [],
      "name": "owner",
      "outputs": [
        {
          "internalType": "address",
          "name": "",
          "type": "address"
        }
      ],
      "stateMutability": "view",
      "type": "function"
    },
    {
      "inputs": [],
      "name": "proxiableUUID",
      "outputs": [
        {
          "internalType": "bytes32",
          "name": "",
          "type": "bytes32"
        }
      ],
      "stateMutability": "view",
      "type": "function"
    },
    {
      "inputs": [],
      "name": "renounceOwnership",
      "outputs": [],
      "stateMutability": "nonpayable",
      "type": "function"
    },
    {
      "inputs": [
        {
          "internalType": "bytes32",
          "name": "role",
          "type": "bytes32"
        },
        {
          "internalType": "address",
          "name": "account",
          "type": "address"
        }
      ],
      "name": "renounceRole",
      "outputs": [],
      "stateMutability": "nonpayable",
      "type": "function"
    },
    {
      "inputs": [
        {
          "internalType": "bytes32",
          "name": "role",
          "type": "bytes32"
        },
        {
          "internalType": "address",
          "name": "account",
          "type": "address"
        }
      ],
      "name": "revokeRole",
      "outputs": [],
      "stateMutability": "nonpayable",
      "type": "function"
    },
    {
      "inputs": [
        {
          "internalType": "bytes4",
          "name": "interfaceId",
          "type": "bytes4"
        }
      ],
      "name": "supportsInterface",
      "outputs": [
        {
          "internalType": "bool",
          "name": "",
          "type": "bool"
        }
      ],
      "stateMutability": "view",
      "type": "function"
    },
    {
      "inputs": [],
      "name": "symbol",
      "outputs": [
        {
          "internalType": "string",
          "name": "",
          "type": "string"
        }
      ],
      "stateMutability": "view",
      "type": "function"
    },
    {
      "inputs": [],
      "name": "totalSupply",
      "outputs": [
        {
          "internalType": "uint256",
          "name": "",
          "type": "uint256"
        }
      ],
      "stateMutability": "view",
      "type": "function"
    },
    {
      "inputs": [
        {
          "internalType": "address",
          "name": "to",
          "type": "address"
        },
        {
          "internalType": "uint256",
          "name": "amount",
          "type": "uint256"
        }
      ],
      "name": "transfer",
      "outputs": [
        {
          "internalType": "bool",
          "name": "",
          "type": "bool"
        }
      ],
      "stateMutability": "nonpayable",
      "type": "function"
    },
    {
      "inputs": [
        {
          "internalType": "address",
          "name": "from",
          "type": "address"
        },
        {
          "internalType": "address",
          "name": "to",
          "type": "address"
        },
        {
          "internalType": "uint256",
          "name": "amount",
          "type": "uint256"
        }
      ],
      "name": "transferFrom",
      "outputs": [
        {
          "internalType": "bool",
          "name": "",
          "type": "bool"
        }
      ],
      "stateMutability": "nonpayable",
      "type": "function"
    },
    {
      "inputs": [
        {
          "internalType": "address",
          "name": "newOwner",
          "type": "address"
        }
      ],
      "name": "transferOwnership",
      "outputs": [],
      "stateMutability": "nonpayable",
      "type": "function"
    },
    {
      "inputs": [
        {
          "internalType": "address",
          "name": "newImplementation",
          "type": "address"
        }
      ],
      "name": "upgradeTo",
      "outputs": [],
      "stateMutability": "nonpayable",
      "type": "function"
    },
    {
      "inputs": [
        {
          "internalType": "address",
          "name": "newImplementation",
          "type": "address"
        },
        {
          "internalType": "bytes",
          "name": "data",
          "type": "bytes"
        }
      ],
      "name": "upgradeToAndCall",
      "outputs": [],
      "stateMutability": "payable",
      "type": "function"
    }
  ],
  "bytecode": "0x60a06040523073ffffffffffffffffffffffffffffffffffffffff1660809073ffffffffffffffffffffffffffffffffffffffff1660601b8152503480156200004757600080fd5b5060008060019054906101000a900460ff161590508080156200007a5750600160008054906101000a900460ff1660ff16105b80620000b6575062000097306200019960201b6200116e1760201c565b158015620000b55750600160008054906101000a900460ff1660ff16145b5b620000f8576040517f08c379a0000000000000000000000000000000000000000000000000000000008152600401620000ef9062000211565b60405180910390fd5b60016000806101000a81548160ff021916908360ff160217905550801562000136576001600060016101000a81548160ff0219169083151502179055505b8015620001925760008060016101000a81548160ff0219169083151502179055507f7f26b83ff96e1f2b6a682f133852f6798a09c465da95921460cefb38474024986001604051620001899190620001f4565b60405180910390a15b50620002b4565b6000808273ffffffffffffffffffffffffffffffffffffffff163b119050919050565b620001c78162000251565b82525050565b6000620001dc602e8362000233565b9150620001e98262000265565b604082019050919050565b60006020820190506200020b6000830184620001bc565b92915050565b600060208201905081810360008301526200022c81620001cd565b9050919050565b600082825260208201905092915050565b600060ff82169050919050565b60006200025e8262000244565b9050919050565b7f496e697469616c697a61626c653a20636f6e747261637420697320616c72656160008201527f647920696e697469616c697a6564000000000000000000000000000000000000602082015250565b60805160601c613ca6620002ef60003960008181610849015281816108d801528181610a2f01528181610abe0152610b6e0152613ca66000f3fe6080604052600436106101665760003560e01c806352d1902d116100d157806395d89b411161008a578063a9059cbb11610064578063a9059cbb14610545578063d547741f14610582578063dd62ed3e146105ab578063f2fde38b146105e857610166565b806395d89b41146104b2578063a217fddf146104dd578063a457c2d71461050857610166565b806352d1902d146103b457806370a08231146103df578063715018a61461041c5780638129fc1c146104335780638da5cb5b1461044a57806391d148541461047557610166565b80632f2ff15d116101235780632f2ff15d146102b5578063313ce567146102de57806336568abe146103095780633659cfe614610332578063395093511461035b5780634f1ef2861461039857610166565b806301ffc9a71461016b57806306fdde03146101a8578063095ea7b3146101d357806318160ddd1461021057806323b872dd1461023b578063248a9ca314610278575b600080fd5b34801561017757600080fd5b50610192600480360381019061018d91906128f5565b610611565b60405161019f9190612da4565b60405180910390f35b3480156101b457600080fd5b506101bd61068b565b6040516101ca9190612df5565b60405180910390f35b3480156101df57600080fd5b506101fa60048036038101906101f5919061282b565b61071d565b6040516102079190612da4565b60405180910390f35b34801561021c57600080fd5b50610225610740565b60405161023291906130b7565b60405180910390f35b34801561024757600080fd5b50610262600480360381019061025d9190612788565b61074a565b60405161026f9190612da4565b60405180910390f35b34801561028457600080fd5b5061029f600480360381019061029a9190612867565b610779565b6040516102ac9190612dbf565b60405180910390f35b3480156102c157600080fd5b506102dc60048036038101906102d791906128b9565b61079a565b005b3480156102ea57600080fd5b506102f36107bb565b60405161030091906130d2565b60405180910390f35b34801561031557600080fd5b50610330600480360381019061032b91906128b9565b6107c4565b005b34801561033e57600080fd5b5061035960048036038101906103549190612723565b610847565b005b34801561036757600080fd5b50610382600480360381019061037d919061282b565b6109f6565b60405161038f9190612da4565b60405180910390f35b6103b260048036038101906103ad91906127d7565b610a2d565b005b3480156103c057600080fd5b506103c9610b6a565b6040516103d69190612dbf565b60405180910390f35b3480156103eb57600080fd5b5061040660048036038101906104019190612723565b610c23565b60405161041391906130b7565b60405180910390f35b34801561042857600080fd5b50610431610c6c565b005b34801561043f57600080fd5b50610448610c80565b005b34801561045657600080fd5b5061045f610e79565b60405161046c9190612d89565b60405180910390f35b34801561048157600080fd5b5061049c600480360381019061049791906128b9565b610ea3565b6040516104a99190612da4565b60405180910390f35b3480156104be57600080fd5b506104c7610f0f565b6040516104d49190612df5565b60405180910390f35b3480156104e957600080fd5b506104f2610fa1565b6040516104ff9190612dbf565b60405180910390f35b34801561051457600080fd5b5061052f600480360381019061052a919061282b565b610fa8565b60405161053c9190612da4565b60405180910390f35b34801561055157600080fd5b5061056c6004803603810190610567919061282b565b61101f565b6040516105799190612da4565b60405180910390f35b34801561058e57600080fd5b506105a960048036038101906105a491906128b9565b611042565b005b3480156105b757600080fd5b506105d260048036038101906105cd919061274c565b611063565b6040516105df91906130b7565b60405180910390f35b3480156105f457600080fd5b5061060f600480360381019061060a9190612723565b6110ea565b005b60007f7965db0b000000000000000000000000000000000000000000000000000000007bffffffffffffffffffffffffffffffffffffffffffffffffffffffff1916827bffffffffffffffffffffffffffffffffffffffffffffffffffffffff19161480610684575061068382611191565b5b9050919050565b60606036805461069a906134aa565b80601f01602080910402602001604051908101604052809291908181526020018280546106c6906134aa565b80156107135780601f106106e857610100808354040283529160200191610713565b820191906000526020600020905b8154815290600101906020018083116106f657829003601f168201915b5050505050905090565b6000806107286111fb565b9050610735818585611203565b600191505092915050565b6000603554905090565b6000806107556111fb565b90506107628582856113ce565b61076d85858561145a565b60019150509392505050565b600061012d6000838152602001908152602001600020600101549050919050565b6107a382610779565b6107ac816116de565b6107b683836116f2565b505050565b60006012905090565b6107cc6111fb565b73ffffffffffffffffffffffffffffffffffffffff168173ffffffffffffffffffffffffffffffffffffffff1614610839576040517f08c379a000000000000000000000000000000000000000000000000000000000815260040161083090613077565b60405180910390fd5b61084382826117d4565b5050565b7f000000000000000000000000000000000000000000000000000000000000000073ffffffffffffffffffffffffffffffffffffffff163073ffffffffffffffffffffffffffffffffffffffff1614156108d6576040517f08c379a00000000000000000000000000000000000000000000000000000000081526004016108cd90612e97565b60405180910390fd5b7f000000000000000000000000000000000000000000000000000000000000000073ffffffffffffffffffffffffffffffffffffffff166109156118b7565b73ffffffffffffffffffffffffffffffffffffffff161461096b576040517f08c379a000000000000000000000000000000000000000000000000000000000815260040161096290612ef7565b60405180910390fd5b6109748161190e565b6109f381600067ffffffffffffffff8111156109b9577f4e487b7100000000000000000000000000000000000000000000000000000000600052604160045260246000fd5b6040519080825280601f01601f1916602001820160405280156109eb5781602001600182028036833780820191505090505b50600061191f565b50565b600080610a016111fb565b9050610a22818585610a138589611063565b610a1d9190613180565b611203565b600191505092915050565b7f000000000000000000000000000000000000000000000000000000000000000073ffffffffffffffffffffffffffffffffffffffff163073ffffffffffffffffffffffffffffffffffffffff161415610abc576040517f08c379a0000000000000000000000000000000000000000000000000000000008152600401610ab390612e97565b60405180910390fd5b7f000000000000000000000000000000000000000000000000000000000000000073ffffffffffffffffffffffffffffffffffffffff16610afb6118b7565b73ffffffffffffffffffffffffffffffffffffffff1614610b51576040517f08c379a0000000000000000000000000000000000000000000000000000000008152600401610b4890612ef7565b60405180910390fd5b610b5a8261190e565b610b668282600161191f565b5050565b60007f000000000000000000000000000000000000000000000000000000000000000073ffffffffffffffffffffffffffffffffffffffff163073ffffffffffffffffffffffffffffffffffffffff1614610bfa576040517f08c379a0000000000000000000000000000000000000000000000000000000008152600401610bf190612f17565b60405180910390fd5b7f360894a13ba1a3210667c828492db98dca3e2076cc3735a920a3ca505d382bbc60001b905090565b6000603360008373ffffffffffffffffffffffffffffffffffffffff1673ffffffffffffffffffffffffffffffffffffffff168152602001908152602001600020549050919050565b610c74611a9c565b610c7e6000611b1a565b565b60008060019054906101000a900460ff16159050808015610cb15750600160008054906101000a900460ff1660ff16105b80610cde5750610cc03061116e565b158015610cdd5750600160008054906101000a900460ff1660ff16145b5b610d1d576040517f08c379a0000000000000000000000000000000000000000000000000000000008152600401610d1490612f57565b60405180910390fd5b60016000806101000a81548160ff021916908360ff1602179055508015610d5a576001600060016101000a81548160ff0219169083151502179055505b610dce6040518060400160405280600781526020017f4d79546f6b656e000000000000000000000000000000000000000000000000008152506040518060400160405280600381526020017f4d544b0000000000000000000000000000000000000000000000000000000000815250611be0565b610dd6611c3d565b610dde611c96565b610deb6000801b336116f2565b610df3611ce7565b610e1d33610dff6107bb565b600a610e0b9190613229565b6103e8610e189190613347565b611d38565b8015610e765760008060016101000a81548160ff0219169083151502179055507f7f26b83ff96e1f2b6a682f133852f6798a09c465da95921460cefb38474024986001604051610e6d9190612dda565b60405180910390a15b50565b600060c960009054906101000a900473ffffffffffffffffffffffffffffffffffffffff16905090565b600061012d600084815260200190815260200160002060000160008373ffffffffffffffffffffffffffffffffffffffff1673ffffffffffffffffffffffffffffffffffffffff16815260200190815260200160002060009054906101000a900460ff16905092915050565b606060378054610f1e906134aa565b80601f0160208091040260200160405190810160405280929190818152602001828054610f4a906134aa565b8015610f975780601f10610f6c57610100808354040283529160200191610f97565b820191906000526020600020905b815481529060010190602001808311610f7a57829003601f168201915b5050505050905090565b6000801b81565b600080610fb36111fb565b90506000610fc18286611063565b905083811015611006576040517f08c379a0000000000000000000000000000000000000000000000000000000008152600401610ffd90613057565b60405180910390fd5b6110138286868403611203565b60019250505092915050565b60008061102a6111fb565b905061103781858561145a565b600191505092915050565b61104b82610779565b611054816116de565b61105e83836117d4565b505050565b6000603460008473ffffffffffffffffffffffffffffffffffffffff1673ffffffffffffffffffffffffffffffffffffffff16815260200190815260200160002060008373ffffffffffffffffffffffffffffffffffffffff1673ffffffffffffffffffffffffffffffffffffffff16815260200190815260200160002054905092915050565b6110f2611a9c565b600073ffffffffffffffffffffffffffffffffffffffff168173ffffffffffffffffffffffffffffffffffffffff161415611162576040517f08c379a000000000000000000000000000000000000000000000000000000000815260040161115990612e57565b60405180910390fd5b61116b81611b1a565b50565b6000808273ffffffffffffffffffffffffffffffffffffffff163b119050919050565b60007f01ffc9a7000000000000000000000000000000000000000000000000000000007bffffffffffffffffffffffffffffffffffffffffffffffffffffffff1916827bffffffffffffffffffffffffffffffffffffffffffffffffffffffff1916149050919050565b600033905090565b600073ffffffffffffffffffffffffffffffffffffffff168373ffffffffffffffffffffffffffffffffffffffff161415611273576040517f08c379a000000000000000000000000000000000000000000000000000000000815260040161126a90613017565b60405180910390fd5b600073ffffffffffffffffffffffffffffffffffffffff168273ffffffffffffffffffffffffffffffffffffffff1614156112e3576040517f08c379a00000000000000000000000000000000000000000000000000000000081526004016112da90612e77565b60405180910390fd5b80603460008573ffffffffffffffffffffffffffffffffffffffff1673ffffffffffffffffffffffffffffffffffffffff16815260200190815260200160002060008473ffffffffffffffffffffffffffffffffffffffff1673ffffffffffffffffffffffffffffffffffffffff168152602001908152602001600020819055508173ffffffffffffffffffffffffffffffffffffffff168373ffffffffffffffffffffffffffffffffffffffff167f8c5be1e5ebec7d5bd14f71427d1e84f3dd0314c0f7b2291e5b200ac8c7c3b925836040516113c191906130b7565b60405180910390a3505050565b60006113da8484611063565b90507fffffffffffffffffffffffffffffffffffffffffffffffffffffffffffffffff81146114545781811015611446576040517f08c379a000000000000000000000000000000000000000000000000000000000815260040161143d90612eb7565b60405180910390fd5b6114538484848403611203565b5b50505050565b600073ffffffffffffffffffffffffffffffffffffffff168373ffffffffffffffffffffffffffffffffffffffff1614156114ca576040517f08c379a00000000000000000000000000000000000000000000000000000000081526004016114c190612ff7565b60405180910390fd5b600073ffffffffffffffffffffffffffffffffffffffff168273ffffffffffffffffffffffffffffffffffffffff16141561153a576040517f08c379a000000000000000000000000000000000000000000000000000000000815260040161153190612e37565b60405180910390fd5b611545838383611e99565b6000603360008573ffffffffffffffffffffffffffffffffffffffff1673ffffffffffffffffffffffffffffffffffffffff168152602001908152602001600020549050818110156115cc576040517f08c379a00000000000000000000000000000000000000000000000000000000081526004016115c390612ed7565b60405180910390fd5b818103603360008673ffffffffffffffffffffffffffffffffffffffff1673ffffffffffffffffffffffffffffffffffffffff1681526020019081526020016000208190555081603360008573ffffffffffffffffffffffffffffffffffffffff1673ffffffffffffffffffffffffffffffffffffffff16815260200190815260200160002060008282546116619190613180565b925050819055508273ffffffffffffffffffffffffffffffffffffffff168473ffffffffffffffffffffffffffffffffffffffff167fddf252ad1be2c89b69c2b068fc378daa952ba7f163c4a11628f55a4df523b3ef846040516116c591906130b7565b60405180910390a36116d8848484611e9e565b50505050565b6116ef816116ea6111fb565b611ea3565b50565b6116fc8282610ea3565b6117d057600161012d600084815260200190815260200160002060000160008373ffffffffffffffffffffffffffffffffffffffff1673ffffffffffffffffffffffffffffffffffffffff16815260200190815260200160002060006101000a81548160ff0219169083151502179055506117756111fb565b73ffffffffffffffffffffffffffffffffffffffff168173ffffffffffffffffffffffffffffffffffffffff16837f2f8788117e7eff1d82e926ec794901d17c78024a50270940304540a733656f0d60405160405180910390a45b5050565b6117de8282610ea3565b156118b357600061012d600084815260200190815260200160002060000160008373ffffffffffffffffffffffffffffffffffffffff1673ffffffffffffffffffffffffffffffffffffffff16815260200190815260200160002060006101000a81548160ff0219169083151502179055506118586111fb565b73ffffffffffffffffffffffffffffffffffffffff168173ffffffffffffffffffffffffffffffffffffffff16837ff6391f5c32d9c69d2a47ea670b442974b53935d1edc7fd64eb21e047a839171b60405160405180910390a45b5050565b60006118e57f360894a13ba1a3210667c828492db98dca3e2076cc3735a920a3ca505d382bbc60001b611f40565b60000160009054906101000a900473ffffffffffffffffffffffffffffffffffffffff16905090565b6000801b61191b816116de565b5050565b61194b7f4910fdfa16fed3260ed0e7147f7cc6da11a60208b5b9406d12a635614ffd914360001b611f4a565b60000160009054906101000a900460ff161561196f5761196a83611f54565b611a97565b8273ffffffffffffffffffffffffffffffffffffffff166352d1902d6040518163ffffffff1660e01b815260040160206040518083038186803b1580156119b557600080fd5b505afa9250505080156119e657506040513d601f19601f820116820180604052508101906119e39190612890565b60015b611a25576040517f08c379a0000000000000000000000000000000000000000000000000000000008152600401611a1c90612f77565b60405180910390fd5b7f360894a13ba1a3210667c828492db98dca3e2076cc3735a920a3ca505d382bbc60001b8114611a8a576040517f08c379a0000000000000000000000000000000000000000000000000000000008152600401611a8190612f37565b60405180910390fd5b50611a9683838361200d565b5b505050565b611aa46111fb565b73ffffffffffffffffffffffffffffffffffffffff16611ac2610e79565b73ffffffffffffffffffffffffffffffffffffffff1614611b18576040517f08c379a0000000000000000000000000000000000000000000000000000000008152600401611b0f90612fb7565b60405180910390fd5b565b600060c960009054906101000a900473ffffffffffffffffffffffffffffffffffffffff1690508160c960006101000a81548173ffffffffffffffffffffffffffffffffffffffff021916908373ffffffffffffffffffffffffffffffffffffffff1602179055508173ffffffffffffffffffffffffffffffffffffffff168173ffffffffffffffffffffffffffffffffffffffff167f8be0079c531659141344cd1fd0a4f28419497f9722a3daafe3b4186f6b6457e060405160405180910390a35050565b600060019054906101000a900460ff16611c2f576040517f08c379a0000000000000000000000000000000000000000000000000000000008152600401611c2690613037565b60405180910390fd5b611c398282612039565b5050565b600060019054906101000a900460ff16611c8c576040517f08c379a0000000000000000000000000000000000000000000000000000000008152600401611c8390613037565b60405180910390fd5b611c946120ba565b565b600060019054906101000a900460ff16611ce5576040517f08c379a0000000000000000000000000000000000000000000000000000000008152600401611cdc90613037565b60405180910390fd5b565b600060019054906101000a900460ff16611d36576040517f08c379a0000000000000000000000000000000000000000000000000000000008152600401611d2d90613037565b60405180910390fd5b565b600073ffffffffffffffffffffffffffffffffffffffff168273ffffffffffffffffffffffffffffffffffffffff161415611da8576040517f08c379a0000000000000000000000000000000000000000000000000000000008152600401611d9f90613097565b60405180910390fd5b611db460008383611e99565b8060356000828254611dc69190613180565b9250508190555080603360008473ffffffffffffffffffffffffffffffffffffffff1673ffffffffffffffffffffffffffffffffffffffff1681526020019081526020016000206000828254611e1c9190613180565b925050819055508173ffffffffffffffffffffffffffffffffffffffff16600073ffffffffffffffffffffffffffffffffffffffff167fddf252ad1be2c89b69c2b068fc378daa952ba7f163c4a11628f55a4df523b3ef83604051611e8191906130b7565b60405180910390a3611e9560008383611e9e565b5050565b505050565b505050565b611ead8282610ea3565b611f3c57611ed28173ffffffffffffffffffffffffffffffffffffffff16601461211b565b611ee08360001c602061211b565b604051602001611ef1929190612d4f565b6040516020818303038152906040526040517f08c379a0000000000000000000000000000000000000000000000000000000008152600401611f339190612df5565b60405180910390fd5b5050565b6000819050919050565b6000819050919050565b611f5d8161116e565b611f9c576040517f08c379a0000000000000000000000000000000000000000000000000000000008152600401611f9390612f97565b60405180910390fd5b80611fc97f360894a13ba1a3210667c828492db98dca3e2076cc3735a920a3ca505d382bbc60001b611f40565b60000160006101000a81548173ffffffffffffffffffffffffffffffffffffffff021916908373ffffffffffffffffffffffffffffffffffffffff16021790555050565b61201683612415565b6000825111806120235750805b15612034576120328383612464565b505b505050565b600060019054906101000a900460ff16612088576040517f08c379a000000000000000000000000000000000000000000000000000000000815260040161207f90613037565b60405180910390fd5b816036908051906020019061209e9291906125af565b5080603790805190602001906120b59291906125af565b505050565b600060019054906101000a900460ff16612109576040517f08c379a000000000000000000000000000000000000000000000000000000000815260040161210090613037565b60405180910390fd5b6121196121146111fb565b611b1a565b565b60606000600283600261212e9190613347565b6121389190613180565b67ffffffffffffffff811115612177577f4e487b7100000000000000000000000000000000000000000000000000000000600052604160045260246000fd5b6040519080825280601f01601f1916602001820160405280156121a95781602001600182028036833780820191505090505b5090507f300000000000000000000000000000000000000000000000000000000000000081600081518110612207577f4e487b7100000000000000000000000000000000000000000000000000000000600052603260045260246000fd5b60200101907effffffffffffffffffffffffffffffffffffffffffffffffffffffffffffff1916908160001a9053507f780000000000000000000000000000000000000000000000000000000000000081600181518110612291577f4e487b7100000000000000000000000000000000000000000000000000000000600052603260045260246000fd5b60200101907effffffffffffffffffffffffffffffffffffffffffffffffffffffffffffff1916908160001a905350600060018460026122d19190613347565b6122db9190613180565b90505b60018111156123c7577f3031323334353637383961626364656600000000000000000000000000000000600f861660108110612343577f4e487b7100000000000000000000000000000000000000000000000000000000600052603260045260246000fd5b1a60f81b828281518110612380577f4e487b7100000000000000000000000000000000000000000000000000000000600052603260045260246000fd5b60200101907effffffffffffffffffffffffffffffffffffffffffffffffffffffffffffff1916908160001a905350600485901c9450806123c090613480565b90506122de565b506000841461240b576040517f08c379a000000000000000000000000000000000000000000000000000000000815260040161240290612e17565b60405180910390fd5b8091505092915050565b61241e81611f54565b8073ffffffffffffffffffffffffffffffffffffffff167fbc7cd75a20ee27fd9adebab32041f755214dbc6bffa90cc0225b39da2e5c2d3b60405160405180910390a250565b606061246f8361116e565b6124ae576040517f08c379a00000000000000000000000000000000000000000000000000000000081526004016124a590612fd7565b60405180910390fd5b6000808473ffffffffffffffffffffffffffffffffffffffff16846040516124d69190612d38565b600060405180830381855af49150503d8060008114612511576040519150601f19603f3d011682016040523d82523d6000602084013e612516565b606091505b509150915061253e8282604051806060016040528060278152602001613c4a60279139612548565b9250505092915050565b60608315612558578290506125a8565b60008351111561256b5782518084602001fd5b816040517f08c379a000000000000000000000000000000000000000000000000000000000815260040161259f9190612df5565b60405180910390fd5b9392505050565b8280546125bb906134aa565b90600052602060002090601f0160209004810192826125dd5760008555612624565b82601f106125f657805160ff1916838001178555612624565b82800160010185558215612624579182015b82811115612623578251825591602001919060010190612608565b5b5090506126319190612635565b5090565b5b8082111561264e576000816000905550600101612636565b5090565b600061266561266084613112565b6130ed565b90508281526020810184848401111561267d57600080fd5b61268884828561343e565b509392505050565b60008135905061269f81613bed565b92915050565b6000813590506126b481613c04565b92915050565b6000815190506126c981613c04565b92915050565b6000813590506126de81613c1b565b92915050565b600082601f8301126126f557600080fd5b8135612705848260208601612652565b91505092915050565b60008135905061271d81613c32565b92915050565b60006020828403121561273557600080fd5b600061274384828501612690565b91505092915050565b6000806040838503121561275f57600080fd5b600061276d85828601612690565b925050602061277e85828601612690565b9150509250929050565b60008060006060848603121561279d57600080fd5b60006127ab86828701612690565b93505060206127bc86828701612690565b92505060406127cd8682870161270e565b9150509250925092565b600080604083850312156127ea57600080fd5b60006127f885828601612690565b925050602083013567ffffffffffffffff81111561281557600080fd5b612821858286016126e4565b9150509250929050565b6000806040838503121561283e57600080fd5b600061284c85828601612690565b925050602061285d8582860161270e565b9150509250929050565b60006020828403121561287957600080fd5b6000612887848285016126a5565b91505092915050565b6000602082840312156128a257600080fd5b60006128b0848285016126ba565b91505092915050565b600080604083850312156128cc57600080fd5b60006128da858286016126a5565b92505060206128eb85828601612690565b9150509250929050565b60006020828403121561290757600080fd5b6000612915848285016126cf565b91505092915050565b612927816133a1565b82525050565b612936816133b3565b82525050565b612945816133bf565b82525050565b600061295682613143565b6129608185613159565b935061297081856020860161344d565b80840191505092915050565b6129858161342c565b82525050565b60006129968261314e565b6129a08185613164565b93506129b081856020860161344d565b6129b98161359a565b840191505092915050565b60006129cf8261314e565b6129d98185613175565b93506129e981856020860161344d565b80840191505092915050565b6000612a02602083613164565b9150612a0d826135b8565b602082019050919050565b6000612a25602383613164565b9150612a30826135e1565b604082019050919050565b6000612a48602683613164565b9150612a5382613630565b604082019050919050565b6000612a6b602283613164565b9150612a768261367f565b604082019050919050565b6000612a8e602c83613164565b9150612a99826136ce565b604082019050919050565b6000612ab1601d83613164565b9150612abc8261371d565b602082019050919050565b6000612ad4602683613164565b9150612adf82613746565b604082019050919050565b6000612af7602c83613164565b9150612b0282613795565b604082019050919050565b6000612b1a603883613164565b9150612b25826137e4565b604082019050919050565b6000612b3d602983613164565b9150612b4882613833565b604082019050919050565b6000612b60602e83613164565b9150612b6b82613882565b604082019050919050565b6000612b83602e83613164565b9150612b8e826138d1565b604082019050919050565b6000612ba6602d83613164565b9150612bb182613920565b604082019050919050565b6000612bc9602083613164565b9150612bd48261396f565b602082019050919050565b6000612bec602683613164565b9150612bf782613998565b604082019050919050565b6000612c0f602583613164565b9150612c1a826139e7565b604082019050919050565b6000612c32602483613164565b9150612c3d82613a36565b604082019050919050565b6000612c55602b83613164565b9150612c6082613a85565b604082019050919050565b6000612c78601783613175565b9150612c8382613ad4565b601782019050919050565b6000612c9b602583613164565b9150612ca682613afd565b604082019050919050565b6000612cbe601183613175565b9150612cc982613b4c565b601182019050919050565b6000612ce1602f83613164565b9150612cec82613b75565b604082019050919050565b6000612d04601f83613164565b9150612d0f82613bc4565b602082019050919050565b612d2381613415565b82525050565b612d328161341f565b82525050565b6000612d44828461294b565b915081905092915050565b6000612d5a82612c6b565b9150612d6682856129c4565b9150612d7182612cb1565b9150612d7d82846129c4565b91508190509392505050565b6000602082019050612d9e600083018461291e565b92915050565b6000602082019050612db9600083018461292d565b92915050565b6000602082019050612dd4600083018461293c565b92915050565b6000602082019050612def600083018461297c565b92915050565b60006020820190508181036000830152612e0f818461298b565b905092915050565b60006020820190508181036000830152612e30816129f5565b9050919050565b60006020820190508181036000830152612e5081612a18565b9050919050565b60006020820190508181036000830152612e7081612a3b565b9050919050565b60006020820190508181036000830152612e9081612a5e565b9050919050565b60006020820190508181036000830152612eb081612a81565b9050919050565b60006020820190508181036000830152612ed081612aa4565b9050919050565b60006020820190508181036000830152612ef081612ac7565b9050919050565b60006020820190508181036000830152612f1081612aea565b9050919050565b60006020820190508181036000830152612f3081612b0d565b9050919050565b60006020820190508181036000830152612f5081612b30565b9050919050565b60006020820190508181036000830152612f7081612b53565b9050919050565b60006020820190508181036000830152612f9081612b76565b9050919050565b60006020820190508181036000830152612fb081612b99565b9050919050565b60006020820190508181036000830152612fd081612bbc565b9050919050565b60006020820190508181036000830152612ff081612bdf565b9050919050565b6000602082019050818103600083015261301081612c02565b9050919050565b6000602082019050818103600083015261303081612c25565b9050919050565b6000602082019050818103600083015261305081612c48565b9050919050565b6000602082019050818103600083015261307081612c8e565b9050919050565b6000602082019050818103600083015261309081612cd4565b9050919050565b600060208201905081810360008301526130b081612cf7565b9050919050565b60006020820190506130cc6000830184612d1a565b92915050565b60006020820190506130e76000830184612d29565b92915050565b60006130f7613108565b905061310382826134dc565b919050565b6000604051905090565b600067ffffffffffffffff82111561312d5761312c61356b565b5b6131368261359a565b9050602081019050919050565b600081519050919050565b600081519050919050565b600081905092915050565b600082825260208201905092915050565b600081905092915050565b600061318b82613415565b915061319683613415565b9250827fffffffffffffffffffffffffffffffffffffffffffffffffffffffffffffffff038211156131cb576131ca61350d565b5b828201905092915050565b6000808291508390505b6001851115613220578086048111156131fc576131fb61350d565b5b600185161561320b5780820291505b8081029050613219856135ab565b94506131e0565b94509492505050565b600061323482613415565b915061323f8361341f565b925061326c7fffffffffffffffffffffffffffffffffffffffffffffffffffffffffffffffff8484613274565b905092915050565b6000826132845760019050613340565b816132925760009050613340565b81600181146132a857600281146132b2576132e1565b6001915050613340565b60ff8411156132c4576132c361350d565b5b8360020a9150848211156132db576132da61350d565b5b50613340565b5060208310610133831016604e8410600b84101617156133165782820a9050838111156133115761331061350d565b5b613340565b61332384848460016131d6565b9250905081840481111561333a5761333961350d565b5b81810290505b9392505050565b600061335282613415565b915061335d83613415565b9250817fffffffffffffffffffffffffffffffffffffffffffffffffffffffffffffffff04831182151516156133965761339561350d565b5b828202905092915050565b60006133ac826133f5565b9050919050565b60008115159050919050565b6000819050919050565b60007fffffffff0000000000000000000000000000000000000000000000000000000082169050919050565b600073ffffffffffffffffffffffffffffffffffffffff82169050919050565b6000819050919050565b600060ff82169050919050565b60006134378261341f565b9050919050565b82818337600083830152505050565b60005b8381101561346b578082015181840152602081019050613450565b8381111561347a576000848401525b50505050565b600061348b82613415565b9150600082141561349f5761349e61350d565b5b600182039050919050565b600060028204905060018216806134c257607f821691505b602082108114156134d6576134d561353c565b5b50919050565b6134e58261359a565b810181811067ffffffffffffffff821117156135045761350361356b565b5b80604052505050565b7f4e487b7100000000000000000000000000000000000000000000000000000000600052601160045260246000fd5b7f4e487b7100000000000000000000000000000000000000000000000000000000600052602260045260246000fd5b7f4e487b7100000000000000000000000000000000000000000000000000000000600052604160045260246000fd5b6000601f19601f8301169050919050565b60008160011c9050919050565b7f537472696e67733a20686578206c656e67746820696e73756666696369656e74600082015250565b7f45524332303a207472616e7366657220746f20746865207a65726f206164647260008201527f6573730000000000000000000000000000000000000000000000000000000000602082015250565b7f4f776e61626c653a206e6577206f776e657220697320746865207a65726f206160008201527f6464726573730000000000000000000000000000000000000000000000000000602082015250565b7f45524332303a20617070726f766520746f20746865207a65726f20616464726560008201527f7373000000000000000000000000000000000000000000000000000000000000602082015250565b7f46756e6374696f6e206d7573742062652063616c6c6564207468726f7567682060008201527f64656c656761746563616c6c0000000000000000000000000000000000000000602082015250565b7f45524332303a20696e73756666696369656e7420616c6c6f77616e6365000000600082015250565b7f45524332303a207472616e7366657220616d6f756e742065786365656473206260008201527f616c616e63650000000000000000000000000000000000000000000000000000602082015250565b7f46756e6374696f6e206d7573742062652063616c6c6564207468726f7567682060008201527f6163746976652070726f78790000000000000000000000000000000000000000602082015250565b7f555550535570677261646561626c653a206d757374206e6f742062652063616c60008201527f6c6564207468726f7567682064656c656761746563616c6c0000000000000000602082015250565b7f45524331393637557067726164653a20756e737570706f727465642070726f7860008201527f6961626c65555549440000000000000000000000000000000000000000000000602082015250565b7f496e697469616c697a61626c653a20636f6e747261637420697320616c72656160008201527f647920696e697469616c697a6564000000000000000000000000000000000000602082015250565b7f45524331393637557067726164653a206e657720696d706c656d656e7461746960008201527f6f6e206973206e6f742055555053000000000000000000000000000000000000602082015250565b7f455243313936373a206e657720696d706c656d656e746174696f6e206973206e60008201527f6f74206120636f6e747261637400000000000000000000000000000000000000602082015250565b7f4f776e61626c653a2063616c6c6572206973206e6f7420746865206f776e6572600082015250565b7f416464726573733a2064656c65676174652063616c6c20746f206e6f6e2d636f60008201527f6e74726163740000000000000000000000000000000000000000000000000000602082015250565b7f45524332303a207472616e736665722066726f6d20746865207a65726f20616460008201527f6472657373000000000000000000000000000000000000000000000000000000602082015250565b7f45524332303a20617070726f76652066726f6d20746865207a65726f2061646460008201527f7265737300000000000000000000000000000000000000000000000000000000602082015250565b7f496e697469616c697a61626c653a20636f6e7472616374206973206e6f74206960008201527f6e697469616c697a696e67000000000000000000000000000000000000000000602082015250565b7f416363657373436f6e74726f6c3a206163636f756e7420000000000000000000600082015250565b7f45524332303a2064656372656173656420616c6c6f77616e63652062656c6f7760008201527f207a65726f000000000000000000000000000000000000000000000000000000602082015250565b7f206973206d697373696e6720726f6c6520000000000000000000000000000000600082015250565b7f416363657373436f6e74726f6c3a2063616e206f6e6c792072656e6f756e636560008201527f20726f6c657320666f722073656c660000000000000000000000000000000000602082015250565b7f45524332303a206d696e7420746f20746865207a65726f206164647265737300600082015250565b613bf6816133a1565b8114613c0157600080fd5b50565b613c0d816133bf565b8114613c1857600080fd5b50565b613c24816133c9565b8114613c2f57600080fd5b50565b613c3b81613415565b8114613c4657600080fd5b5056fe416464726573733a206c6f772d6c6576656c2064656c65676174652063616c6c206661696c6564a264697066735822122089c9ba3a6af2835ba27c07430430c879f832eea34937ff7c6031e309b12eedd364736f6c63430008030033",
  "linkReferences": {},
  "deployedLinkReferences": {}
}